S01E00004469676974616C61206D7573696B656666656B7465722E7372656352
S11300000C947B030C949C030C949C030C949C0311
S11300100C949C030C949C030C949C030C949C03E0
S11300200C949C030C949C030C94D5080C94B70773
S11300300C949C030C949C030C949C030C949C03C0
S11300400C949C030C949C030C949C030C949C03B0
S11300500C949C030C949C030C949C030C949C03A0
S11300600C949C030C949C030C949C030C949C0390
S11300700C949C030C949C030C949C030C949C0380
S11300800C949C030C949C030C949C030C949C0370
S11300900C949C030C949C030C949C030C949C0360
S11300A00C949C030C949C030C949C030C949C0350
S11300B00C949C030C949C030C949C030C949C0340
S11300C00C949C030C949C030C949C030C949C0330
S11300D00C949C030C949C030C949C030C949C0320
S11300E00C949C0318060506F105DD05C905B50544
S11300F0A1058D057905650551053D052A051705F9
S11301000405F104DD04C904B604A30490047D04C9
S11301106A04560442042F041C040904F603E3038E
S1130120CF03BB03A803950382036E035B03480359
S1130130340320030D03FA02E602D202BE02AA022D
S11301409702840271025D024A02360222020F0201
S1130150FC01E901D501C101AE019B0188017501D2
S11301606201706172616D6574657220373A202096
S11301702025640000706172616D657465722036BB
S11301803A20202025640000706172616D657465F9
S11301907220353A2020202564000054696D6528BA
S11301A06D73293A20202020202025640000467207
S11301B06571432863487A293A2020202025640069
S11301C000466565646261636B282525293A202011
S11301D020256400004D6978282525293A2020200F
S11301E0202020202025640000706172616D6574F8
S11301F0657220373A202020256400007061726106
S11302006D6574657220363A2020202564000070E4
S11302106172616D6574657220353A202020256411
S11302200000466565646261636B282525293A20D0
S11302302020256400004D6F642E206465707428AE
S11302402525293A2020256400004D6F642E206660
S11302507265712863487A293A256400004D6978EB
S1130260282525293A20202020202020202564002C
S113027000486967682066726571286B487A293A74
S1130280256400004D6964206672657128487A29E6
S11302903A2020256400004C6F772066726571282F
S11302A0487A293A20202564000048696768206755
S11302B061696E282525293A2020256400004D69AE
S11302C064206761696E282525293A202020256449
S11302D000004C6F77206761696E282525293A2034
S11302E02020256400004D6978282525293A2020FE
S11302F020202020202025640000706172616D653B
S113030074657220373A202020256400004F666609
S1130310736574286D73293A202020202564000019
S11303204761696E282525293A2020202020202095
S113033025640000466565646261636B2825252990
S11303403A202020256400005069746368206365A6
S11303506E742E3A2020202564000050697463686E
S113036020737465703A20202020256400004D69B4
S113037078282525293A20202020202020202564A3
S11303800000706172616D6574657220373A2020D7
S11303902025640000706172616D65746572203699
S11303A03A202020256400004F6666736574286D2A
S11303B073293A2020202025640000466565646284
S11303C061636B282525293A202020256400004DEF
S11303D06F642E2064657074282525293A20202511
S11303E06400004D6F642E20667265712863487A3C
S11303F0293A256400004D69782835302F35302995
S11304003A2020202025640000706172616D6574BB
S1130410657220373A2020202564000070617261E3
S11304206D6574657220363A2020202564000070C2
S11304306172616D6574657220353A2020202564EF
S11304400000466565646261636B282525293A20AE
S11304502020256400004D6F642E2064657074288C
S11304602525293A2020256400004D6F642E20663E
S11304707265712863487A293A256400004D6978C9
S11304802835302F353029202020202025640000F5
S1130490706172616D6574657220373A2020202581
S11304A0640000706172616D6574657220363A2073
S11304B0202025640000706172616D65746572208E
S11304C0353A202020256400004665656462616336
S11304D06B282525293A202020256400004D6F64CF
S11304E02E2064657074282525293A20202564006F
S11304F0004D6F642E20667265712863487A293A2C
S1130500256400004D6978283130302F30293A2095
S113051020202025640000706172616D657465722D
S113052020373A2020202564000054797065283053
S11305302D33293A202020202025640000466565BB
S1130540646261636B282525293A202020256400F4
S1130550004C6576656C2032282525293A20202018
S113056020256400004C6576656C203128252529FA
S11305703A20202020256400004761696E28252543
S1130580293A20202020202020256400004D69786D
S1130590282525293A2020202020202020256400F9
S11305A00041746B2E205468726573282525293AFE
S11305B020256400004472697665496E4761696E5E
S11305C0282525293A2564000046696C7465722043
S11305D0666328487A293A2020256400004664622C
S11305E02E46696C74657228302D34293A256400CE
S11305F000466565646261636B282525293A2020DD
S1130600202564000054696D65286D73293A202003
S113061020202020256400004D6978282525293ACA
S1130620202020202020202025640000D606C30698
S1130630B0069D068A067706640651063E06526594
S1130640766572623A202020202020202025730025
S1130650005472656D6F6C6F3A202020202020209A
S113066025730000457175616C697A65723A2020C2
S11306702020202573000050697463682073686922
S113068066743A2020202573000043686F727573E6
S11306903A202020202020202025730000466C6171
S11306A06E6765723A2020202020202025730000E8
S11306B05669627261746F3A202020202020202520
S11306C0730000446973746F7274696F6E3A20200A
S11306D020202573000044656C61793A2020202095
S11306E0202020202025730000000C94560A0C942E
S11306F03A0A0C94500711241FBECFEFD1E2DEBF9B
S1130700CDBF00E00CBF16E0A0E0B2E0E0EBFEE1FC
S113071000E00BBF02C007900D92A839B107D9F7CA
S113072027E0A8E9B6E001C01D92A938B207E1F7B5
S11307300E94CE090C94560F0C940000AF92BF9205
S1130740CF92DF92EF92FF920F931F93CF93DF9399
S1130750CDB7DEB766970FB6F894DEBF0FBECDBF38
S1130760D82E7B0187E0D89E802D11248150FB0177
S1130770A080A80EB180B80EC280C80E80E00E948E
S113078032076D2D70E0660F771F645D794FFB01B2
S113079085919491BC018E010F5F1F4FC8010E9487
S11307A06F0C60E08D2D0E947907892B19F08FE181
S11307B092E002C082E292E09F938F931F930F9383
S11307C0809186078F93809185078F930E94760C82
S11307D00F900F900F900F900F900F9081E00E9458
S11307E032074A2D50E0440F551F4C515F4FFA0118
S11307F085919491BC018E010F5F1F4FC8010E9427
S11308006F0CF70160818D2D0E9479079F938F9360
S11308101F930F93809186078F93809185078F9301
S11308200E94760C82E00E9432072B2D30E0220FCA
S1130830331F2C513F4FF90185919491BC01C8019C
S11308400E946F0CF70161818D2D0E9479079F939F
S11308508F931F930F93809186078F9380918507C1
S11308608F930E94760C83E00E943207EC2DF0E017
S1130870EE0FFF1FEC51FF4F85919491BC01C8010D
S11308800E946F0CF70162818D2D0E9479079F935E
S11308908F931F930F93809186078F938091850781
S11308A08F930E94760C0FB6F894DEBF0FBECDBFB7
S11308B066960FB6F894DEBF0FBECDBFDF91CF9121
S11308C01F910F91FF90EF90DF90CF90BF90AF906A
S11308D00895AF92BF92CF92DF92EF92FF920F935F
S11308E01F93CF93DF931092070180910401807EC0
S11308F0809304018FEF80930801809105018F613B
S113090080930501809105018062809305018091A7
S1130910060190910301809398062091060130917D
S11309200301932F9F7180E0822B9F938F9386E224
S113093092E09F938F93809188078F93809187078C
S11309408F930E94760C0AE916E00F900F900F9097
S11309500F900F900F90C0E0D0E0E3E0AE2EB12CEA
S1130960FCE4CF2EF2E0DF2E40910601509103010A
S1130970980129593640C5010C2E02C0880F991FD1
S11309800A94E2F77FE1F72EF522E12CF701E42B3C
S1130990AF01842395230C2E02C0959587950A9464
S11309A0E2F7F80181938F0199279F938F933F93E7
S11309B02F93DF92CF92809188078F93809187073E
S11309C08F930E94760C22968DB79EB708960FB629
S11309D0F8949EBF0FBE8DBFCC30D10529F68FEFA2
S11309E080936D008FE180936C0086E080936800B3
S11309F0DF91CF911F910F91FF90EF90DF90CF90F7
S1130A00BF90AF90089581E28A95F1F700000895B0
S1130A1090E0AC0141505109440F551F23E030E0F0
S1130A20042E02C0220F331F0A94E2F72623372331
S1130A3002C0369527954A95E2F7FC01E756F94F2F
S1130A404081413089F028F04230F1F04330D9F54B
S1130A5026C02130310511F481E004C02230310573
S1130A6019F482E0808308952115310521F4FC01F5
S1130A70E756F94F0CC02330310589F4FC01E756E1
S1130A80F94F23E020831FC02115310511F4108292
S1130A901AC02330310519F483E0808314C0223056
S1130AA0310539F4FC01E756F94F22E0208381E057
S1130AB008952130310539F4FC01E756F94F21E05E
S1130AC0208382E0089580E00895FF920F931F939E
S1130AD0CF93DF93F82E8091060190910301392F73
S1130AE03F7120E08901082BC62FD0E00FC0B80168
S1130AF08F2D0E940805813019F48F2D91E00DC0CF
S1130B00823019F48F2D92E008C0F3942F2D30E039
S1130B10C217D30764F780E090E0DF91CF911F9173
S1130B200F91FF9008959FEF97B95E98662311F097
S1130B305D9A01C05D9888B95F9A5F9808955E9A3E
S1130B4017B8882311F05D9A01C05D985F9A000080
S1130B5017B886B15F985E98089580E00E949F055B
S1130B6087FDFBCF0895559A569A579A8FEF87B908
S1130B705D985E985F9818B885EA9EE00197F1F752
S1130B8000C000005F9A88E388B900005F9881EE96
S1130B9094E00197F1F700C000005F9A00005F98AD
S1130BA091E29A95F1F700005F9A00005F9881E264
S1130BB08A95F1F700005F9A81E088B900005F9898
S1130BC08FE99FE00197F1F700C000005F9A86E08B
S1130BD088B900005F989DE09A95F1F700005F9A4C
S1130BE08CE088B900005F988DE08A95F1F70000E9
S1130BF00895EBE0F1E080818E7F808389EF90E0BF
S1130C000197F1F700C0000080818160808308951E
S1130C10EF92FF920F931F93CF93DF9300D000D0F6
S1130C20CDB7DEB73BE0E32EFF24F394F701308128
S1130C303F7B308330813860308330813F7D308327
S1130C4030E831BB12B82A8349836B837C838D835C
S1130C509E830E94F905F7013081306230832A8136
S1130C60205F21BB4981440F440F42B90E94F9051A
S1130C70F701208120642083208128602083208143
S1130C802F7D20836B817C818D819E81092F11278B
S1130C902227332701BB82B96B837C838D839E8398
S1130CA00E94F905F7012081206220836B817C81F9
S1130CB071BB62B90E94F905E2E0F1E080818D7FA9
S1130CC0808380818260808326960FB6F894DEBF8D
S1130CD00FBECDBFDF91CF911F910F91FF90EF9089
S1130CE00895CF92DF92EF92FF92CF93DF938FEF2D
S1130CF081B980BB80910A01816080930A01509A76
S1130D0080910A01846080930A0180910A018860BD
S1130D1080930A0180910A01806180930A01809185
S1130D200A01806280930A0180910A0180648093A1
S1130D300A0180910A01806880930A01809101016F
S1130D40826080930101589A80910B018F7E809379
S1130D500B0180910B01846080930B0180910B0146
S1130D608F7780930B0180910B018F7780930B0118
S1130D7080910B018F7B80930B0180910B01877F06
S1130D8080930B0180910B018F7D80930B0111BA2D
S1130D9012B80E94F90580910B01806280930B01C7
S1130DA011BA12B80E94F90580910B018F7B8093D0
S1130DB00B0180910B01886080930B0180910B01E2
S1130DC08F7D80930B0111BA12B80E94F9058091AE
S1130DD00B01806280930B0111BA12B80E94F905CD
S1130DE080910B018F7B80930B0180910B018860B4
S1130DF080930B0180910B018F7D80930B0180E820
S1130E0081BB12B80E94F90580910B018062809326
S1130E100B0180E181BB12B80E94F905C0E0D0E06B
S1130E2016C09E01B701A60180E090E00E9408066A
S1130E308FEFC81AD80AE80AF80A88E0C816D1045D
S1130E40E104F10471F72196C930D10521F0C12CD8
S1130E50D12C7601E6CFDF91CF91FF90EF90DF9018
S1130E60CF900895811105C00E94AD0560E080E82F
S1130E7014C0813029F40E94AD0560E080EC0DC0FF
S1130E80823029F40E94AD0560E084E906C0833015
S1130E9031F40E94AD0560E084ED0C94930508954F
S1130EA0CF93DF931F92CDB7DEB78A3079F4809168
S1130EB09F068F5F843018F480939F0602C01092BF
S1130EC09F0680919F060E94320707C089830E9473
S1130ED0AD0561E089810E94930580E090E00F9068
S1130EE0DF91CF9108950E94AD0560E081E00C94FC
S1130EF0930598E0899FF0011124E60FF11DEE0F90
S1130F00FF1FE056F94F8081918108950F931F933D
S1130F10CF93DF93D82FC62F88E0D89F8001112468
S1130F20060F111DF801EE0FFF1FE056F94F518314
S1130F304083BA01882777FD8095982F0E94580B2B
S1130F40F801EE0FFF1FEE0FFF1FE459FD4F208144
S1130F503181428153810E94BC0B0E94250B2D2FAD
S1130F604C2FDF91CF911F910F910C9408061F9283
S1130F700F920FB60F9211240BB60F92CF92DF92FD
S1130F80EF92FF920F931F932F933F934F935F938F
S1130F906F937F938F939F93AF93BF93EF93FF933D
S1130FA00E94030564E081E00E946505192F8230E8
S1130FB071F120F4813009F0DCC007C0833009F4FA
S1130FC06EC0843009F0D5C077C080931C0282E0E3
S1130FD080931D0283E080931E02913059F4809126
S1130FE030078F5F80933007893008F4C2C01092B5
S1130FF03007BFC0923009F0BCC080913007811126
S113100002C088E001C0815080933007B2C0809153
S11310101C02913079F5E0913007F0E0E250FC4F8A
S11310209081891710F010931C02E0913007F0E0D2
S1131030E250FC4FF081E0E080911C0290E06F2FC1
S11310407E2F0E94470C9C0101966F2F7E2F0E94D9
S1131050470C182FC90102966F2F7E2F0E94470C50
S11310602F5F20931C021F5F10931D028F5F8093DC
S11310701E027FC0982F915090931C021230A9F643
S1131080825080931C028111D0CFE0913007F0E0B0
S1131090E250FC4F8081815080931C02C6CF60E0F7
S11310A0809130070E94790741E050E0892B11F0CC
S11310B040E050E060E059C060911C02809130072C
S11310C00E947907113031F52091300740911C02BC
S11310D058E0259F90011124240F311DF901E95F87
S11310E0FB4F4081840F911DF901EE0FFF1FEE0F9E
S11310F0FF1FE15BFB4F0081118122813381AC0131
S1131100662757FD6095762F4017510762077307CE
S11311104CF127C0123031F52091300740911C0268
S113112058E0259F90011124240F311DF901E95F36
S1131130FB4F4081841B9109F901EE0FFF1FEE0F55
S1131140FF1FE159FA4F00811181228133816C0123
S1131150EE24D7FCE094FE2C0C151D052E053F054E
S11311600CF0C801AC0160911C02809130070E9410
S1131170860784E08BBB7894FF91EF91BF91AF9188
S11311809F918F917F916F915F914F913F912F919B
S11311901F910F91FF90EF90DF90CF900F900BBEB7
S11311A00F900FBE0F901F9018951F920F920FB6BD
S11311B00F9211240BB60F92CF92DF92EF92FF920F
S11311C00F931F932F933F934F935F936F937F934B
S11311D08F939F93AF93BF93EF93FF930E94030565
S11311E066E085E00E946505192F853021F0863080
S11311F009F0B8C05AC060911D02809130070E9466
S11312007907113031F52091300740911D0258E0E3
S1131210259F90011124240F311DF901E95FFB4F33
S11312204081840F911DF901EE0FFF1FEE0FFF1F88
S1131230E15BFB4F0081118122813381AC01662780
S113124057FD6095762F40175107620773074CF1DD
S113125027C0123031F52091300740911D0258E02B
S1131260259F90011124240F311DF901E95FFB4FE3
S11312704081841B9109F901EE0FFF1FEE0FFF1F40
S1131280E159FA4F00811181228133816C01EE24EE
S1131290D7FCE094FE2C0C151D052E053F050CF023
S11312A0C801AC0160911D0259C060911E02809179
S11312B030070E947907113031F5209130074091B1
S11312C01E0258E0259F90011124240F311DF901BD
S11312D0E95FFB4F4081840F911DF901EE0FFF1F61
S11312E0EE0FFF1FE15BFB4F0081118122813381EF
S11312F0AC01662757FD6095762F401751076207AA
S113130073074CF127C0123031F52091300740911A
S11313101E0258E0259F90011124240F311DF9016C
S1131320E95FFB4F4081841B9109F901EE0FFF1F18
S1131330EE0FFF1FE159FA4F0081118122813381A1
S11313406C01EE24D7FCE094FE2C0C151D052E0533
S11313503F050CF0C801AC0160911E02809130077A
S11313600E94860782E08BBB7894FF91EF91BF9136
S1131370AF919F918F917F916F915F914F913F9129
S11313802F911F910F91FF90EF90DF90CF900F90CE
S11313900BBE0F900FBE0F901F9018958EE092E039
S11313A0909384078093830790938807809387079B
S11313B080E092E0909386078093850780910201F4
S11313C08260809302010E94300A609187077091C5
S11313D088078CE893E00E94B20C0E94B3056091E8
S11313E08707709188078BEA93E00E94B20C0E94F1
S11313F06904609187077091880781EC93E00E94EB
S1131400B20C0E947106609187077091880789ED7C
S113141093E00E94B20C6CE172E080E00E949E03B3
S1131420789460918707709188078AEE93E00E9410
S1131430B20C0E9473076CE172E0809130070E9445
S11314409E038FE493EC0197F1F700C000006091D4
S11314508707709188078EE290E00E94860CE9CF9E
S113146082E08093C0008CE08093C40088E1809384
S1131470C1000895CF93C82F873049F4609187073E
S1131480709188078FE896E00E94B20C0BC08A30F6
S113149019F48DE00E943A0A8091C00085FFFCCFC8
S11314A0C093C60080E090E0CF910895EF92FF9240
S11314B00F931F93CF93DF938C0180913107909109
S11314C03207892B09F0A1C0C3E3D7E08091C000A3
S11314D087FFFCCF8091C00084FDAAC08091C0002A
S11314E083FDA9C08091C6008D3061F48AE08883B1
S11314F0B8010E943A0A83E397E0909332078093FD
S1131500310783C08A3091F3893009F480E2982F3F
S113151090529F3510F0803A90F097E0C238D90786
S113152049F460918707709188078FE896E00E94DC
S1131530B20CCCCF8993B8010E943A0AC7CF82314A
S113154029F138F4833009F476C0883009F0BECF2D
S113155009C0873109F44DC08F3721F0853109F076
S1131560B5CF34C0E7E0C333DE0709F008F4AECFEB
S1131570B80188E00E943A0AB80180E20E943A0A5F
S1131580B80188E00E943A0A2197A0CFB8018DE003
S11315900E943A0A83E3E82E87E0F82E06C0B801D9
S11315A0F70181917F010E943A0AEC16FD06B8F317
S11315B08DCFB80188E00E943A0AB80180E20E9407
S11315C03A0AB80188E00E943A0A2197F7E0C33347
S11315D0DF0709F070F77ACFB80188E00E943A0A71
S11315E0B80180E20E943A0AB80188E00E943A0AEF
S11315F0E70187E0C333D80709F008F467CFFE0199
S113160082917F01803241F761CFE0913107F091FF
S1131610320720812A3031F03196F0933207E0937B
S1131620310704C0109232071092310730E005C030
S11316302EEF3FEF02C02FEF3FEFC901DF91CF91B3
S11316401F910F91FF90EF90089504D06894B11109
S11316508DC0089570D088F09F5790F0B92F9927C6
S1131660B751A0F0D1F0660F771F881F991F1AF0A9
S1131670BA95C9F712C0B13081F077D0B1E00895BE
S113168074C0672F782F8827B85F39F0B93FCCF33F
S1131690869577956795B395D9F73EF4909580959F
S11316A0709561957F4F8F4F9F4F0895E89409C0BF
S11316B097FB3EF490958095709561957F4F8F4F81
S11316C09F4F9923A9F0F92F96E9BB279395F69597
S11316D0879577956795B795F111F8CFFAF4BB0F15
S11316E011F460FF1BC06F5F7F4F8F4F9F4F16C079
S11316F0882311F096E911C0772321F09EE8872F03
S1131700762F05C0662371F096E8862F70E060E0BE
S11317102AF09A95660F771F881FDAF7880F969537
S1131720879597F9089557FD9058440F551F59F020
S11317305F3F71F04795880F97FB991F61F09F3FBA
S113174079F087950895121613061406551FF2CFE3
S11317504695F1DF08C0161617061806991FF1CF33
S113176086957105610508940895E894BB2766275A
S11317707727CB0197F908950BD078C069D028F06A
S11317806ED018F0952309F05AC05FC01124EECF33
S1131790CADFA0F3959FD1F3950F50E0551F629FC8
S11317A0F001729FBB27F00DB11D639FAA27F00DB6
S11317B0B11DAA1F649F6627B00DA11D661F829FDD
S11317C02227B00DA11D621F739FB00DA11D621FC2
S11317D0839FA00D611D221F749F3327A00D611DDF
S11317E0231F849F600D211D822F762F6A2F1124C1
S11317F09F5750408AF0E1F088234AF0EE0FFF1F14
S1131800BB1F661F771F881F91505040A9F79E3F4A
S1131810510570F014C0AACF5F3FECF3983EDCF39F
S1131820869577956795B795F795E7959F5FC1F787
S1131830FE2B880F911D9695879597F9089597F932
S11318409F6780E870E060E008959FEF80EC089562
S113185000240A941616170618060906089500248B
S11318600A9412161306140605060895092E039405
S1131870000C11F4882352F0BB0F40F4BF2B11F479
S113188060FF04C06F5F7F4F8F4F9F4F089597FB9A
S1131890072E16F4009407D077FD09D00E945B0C44
S11318A007FC05D03EF4909581959F4F089570955F
S11318B061957F4F0895AA1BBB1B51E107C0AA1F66
S11318C0BB1FA617B70710F0A61BB70B881F991FDD
S11318D05A95A9F780959095BC01CD010895FB0117
S11318E0DC0105900D920020E1F70895CF93DF937A
S11318F0CDB7DEB7CE010A96AC01688579858E81B5
S11319009F810E94DD0CDF91CF9108950F931F9367
S1131910CF93DF938C01EB018B8181FD03C00FEF2B
S11319201FEF1AC082FF0DC02E813F818C819D81E3
S11319302817390764F4E881F9810193F983E8836E
S113194006C0E885F985802F1995892B41F78E818A
S11319509F8101969F838E83C801DF91CF911F9150
S11319600F910895EF92FF920F931F93CF93DF93FC
S11319707C018B01DB0113968C9181FF14C0C0E0C4
S1131980D0E00BC0D8011896ED91FC911997B801DD
S11319901995892B11F0CFEFDFEFF70181917F01CA
S11319A08111F0CF02C0CFEFDFEFCE01DF91CF91F5
S11319B01F910F91FF90EF9008952F923F924F92B5
S11319C05F926F927F928F929F92AF92BF92CF92CB
S11319D0DF92EF92FF920F931F93CF93DF93CDB7D4
S11319E0DEB72C970FB6F894DEBF0FBECDBF7C01D7
S11319F06B018A01FC0117821682838181FFC6C1B3
S1131A0088248394912C8C0E9D1EF7019381F601FA
S1131A1093FD859193FF81916F01882309F4B2C1ED
S1131A20853239F493FD859193FF81916F0185325D
S1131A3029F4B70190E00E94860CE7CF512C312C99
S1131A4020E02032A8F48B3261F028F4803251F087
S1131A50833271F40BC08D3239F0803349F4216044
S1131A6028C02260246025C0286023C0206121C0D2
S1131A7027FD27C0382F30533A3078F426FF06C0AC
S1131A80FAE05F9E300D1124532E13C08AE0389E75
S1131A90300D1124332E20620CC08E3221F426FD29
S1131AA071C1206406C08C3611F4206802C08836E7
S1131AB041F4F60193FD859193FF81916F018111AA
S1131AC0C0CF982F9554933018F09052933028F447
S1131AD00C5F1F4FFFE3F9830DC0833631F083376A
S1131AE071F0833509F05EC023C0F80180818983D9
S1131AF00E5F1F4F44244394512C540115C03801E8
S1131B00F2E06F0E711CF801A080B18026FF03C0C3
S1131B10652D70E002C06FEF7FEFC5012C870E9436
S1131B20ED0E2C0183012C856FE7262E222218C08E
S1131B303801F2E06F0E711CF801A080B18026FF1D
S1131B4003C0652D70E002C06FEF7FEFC5012C87E5
S1131B500E94E20E2C012C8550E8252E222A8301B6
S1131B6023FC1CC006C0B70180E290E00E94860CF2
S1131B703A94832D90E048165906A8F30FC0F50156
S1131B8027FC859127FE81915F01B70190E00E94B7
S1131B90860C31103A94F1E04F1A51084114510463
S1131BA071F7EDC0843611F0893641F5F80127FF4D
S1131BB007C060817181828193810C5F1F4F08C0CF
S1131BC060817181882777FD8095982F0E5F1F4F64
S1131BD04FE6B42EB22297FF09C090958095709578
S1131BE061957F4F8F4F9F4FF0E8BF2A2AE030E086
S1131BF0A4010E94F80EA82EA81843C0853731F41A
S1131C003FEEB32EB2222AE030E024C099EFB92E81
S1131C10B2228F36B9F020F4883509F0B3C00DC074
S1131C20803721F0883709F0ADC002C020E1B22A24
S1131C30B4FE0BC084E0B82A08C024FF09C0E6E063
S1131C40BE2A06C028E030E005C020E130E002C032
S1131C5020E132E0F801B7FE07C060817181828122
S1131C6093810C5F1F4F06C06081718180E090E01A
S1131C700E5F1F4FA4010E94F80EA82EA818FFE7BC
S1131C80BF22B6FE0BC02B2D2E7FA51450F4B4FE3C
S1131C900AC0B2FC08C02B2D2E7E05C07A2C2B2D39
S1131CA003C07A2C01C0752C24FF0DC0FE01EA0D7F
S1131CB0F11D8081803311F4297E09C022FF06C002
S1131CC07394739404C0822F867809F0739423FD6F
S1131CD014C020FF0FC05A2C731460F4530C57180F
S1131CE0732C08C0B70180E290E02C870E94860C18
S1131CF073942C857314B0F304C0731410F4371860
S1131D0001C0312C24FF12C0B70180E390E02C877E
S1131D100E94860C2C8522FF1EC021FF03C088E58B
S1131D2090E002C088E790E0B7010CC0822F86786B
S1131D3091F021FD02C080E201C08BE227FD8DE21B
S1131D40B70190E00E94860C06C0B70180E390E0E2
S1131D500E94860C5A94A514C0F3AA94F401EA0DC7
S1131D60F11DB701808190E00E94860CA110F5CF8F
S1131D7006C0B70180E290E00E94860C3A943110CC
S1131D80F8CF43CEF7012681378102C02FEF3FEF12
S1131D90C9012C960FB6F894DEBF0FBECDBFDF91FC
S1131DA0CF911F910F91FF90EF90DF90CF90BF9054
S1131DB0AF909F908F907F906F905F904F903F90E7
S1131DC02F900895FC010590615070400110D8F7E0
S1131DD0809590958E0F9F1F0895FC01615070406F
S1131DE001900110D8F7809590958E0F9F1F08954C
S1131DF0FA01AA27283051F1203181F1E8946F9338
S1131E006E7F6E5F7F4F8F4F9F4FAF4FB1E03ED0DD
S1131E10B4E03CD0670F781F891F9A1FA11D680F7B
S1131E20791F8A1F911DA11D6A0F711D811D911DAE
S1131E30A11D20D009F468943F912AE0269F112423
S1131E403019305D3193DEF6CF010895462F477087
S1131E50405D4193B3E00FD0C9F7F6CF462F4F70E2
S1131E60405D4A3318F0495D31FD4052419302D040
S1131E70A9F7EACFB4E0A6959795879577956795E6
S1131E80BA95C9F700976105710508959B01AC01E6
S1131E900A2E06945795479537952795BA95C9F70D
S1131EA0620F731F841F951FA01D0895F894FFCF20
S1131EB000000002000000005007000000000000C5
S1131EC00003000000003A0A560A00000102036FF2
S1131ED06E006F666600496E697469616C74207681
S1131EE061726465206672616E2070756C736769D7
S1131EF0766172653A20307825780A00496E6974F3
S1131F0069616C742070756C73676976617276614F
S1131F107264652025643A2025640A000000803F2D
S1131F200AD7A3430000803F0AD7A3430000000060
S1131F300000000000000000000000000000803FDE
S1131F400AD7A3430AD7A3430AD7A3430AD7A34371
S1131F500AD7A3430000803F000000000000803F38
S1131F600AD7A3430AD7A3430AD7A3430AD7A34351
S1131F700000000000000000000000000000803F9E
S1131F800AD7A3430AD7A3430AD7A3430AD7A34331
S1131F900000000000000000000000000000803F7E
S1131FA00AD7A3430AD7A3430AD7A3430AD7A34311
S1131FB00AD7A34300000000000000000000803F97
S1131FC00AD7A3430000803F0000803F0AD7A34301
S1131FD00AD7A34300000000000000000000803F77
S1131FE00AD7A3430AD7A3430AD7A3430AD7A343D1
S1131FF00000803F0000803F00007A440000803FE2
S11320000AD7A3430AD7A3430AD7A3430AD7A343B0
S11320100000000000000000000000000000803FFD
S11320200AD7A3430AD7A3430AD7A3430AD7A34390
S11320300000000000000000000000005541525460
S11320402D6B6F6D6D756E696B6174696F6E206950
S11320506E697469657261642E0A004C43442D6D87
S11320606F64756C20696E697469657261642E0AA7
S11320700050756C7367697661726520696E697466
S11320806965726164652E0A0048504920696E6969
S1132090746965726164652E0A00417662726F74B8
S11320A07420616B746976657261742E0A00070688
S11320B00404050507040400050105010A050000E0
S11320C005140505050100000505010500000000D3
S11320D005050105000000000505010505000000D7
S11320E00501010505000000050505050A64010058
S11320F0050505050000000005053201000000008B
S113210000000064000000E8030000640000000414
S113211000000088130000C8000000000000000058
S113212000000064000000E8030000640000006494
S11321300000006400000003000000000000000034
S113214000000064000000F401000064000000646A
S1132150000000000000000000000000000000007B
S113216000000032000000F401000064000000647C
S1132170000000000000000000000000000000005B
S113218000000032000000F401000064000000645C
S113219000000064000000000000000000000000D7
S11321A000000064000000180000006400000064E7
S11321B00000006400000064000000000000000053
S11321C000000064000000C8000000C8000000C84F
S11321D000000020030000401F0000300000000049
S11321E000000064000000F40100006400000064CA
S11321F000000000000000000000000000000000DB
S1132200000000640000006400000088130000F473
S113221001000000000000000000000000000000B9
S113222000000000000000000000009CFFFFFF0011
S1132230000000000000000000000000000000009A
S1132240000000000000000000000000000000008A
S11322500000009CFFFFFF000000000000000000E1
S11322600000006400000000000000000000009C6A
S1132270FFFFFF000000000000000000000000005D
S11322800000003200000000000000000000009C7C
S1132290FFFFFF000000000000000000000000003D
S11322A00000003200000000000000000000009C5C
S11322B0FFFFFF000000000000000000000000001D
S11322C000000000000000E8FFFFFF9CFFFFFF9CF0
S11322D0FFFFFF00000000000000000000000000FD
S11322E000000000000000000000000000000000EA
S11322F000000000000000000000000000000000DA
S11323000000000000000000000000000000009C2D
S1132310FFFFFF00000000000000000000000000BC
S1132320000000000000009CFFFFFF000000000010
S11323300000000000000000000000000000002A6F
S10B234072696E672A0A0000AD
S9030000FC
