:100000000C9425030C9446030C9446030C9446036D
:100010000C9446030C9446030C9446030C9446033C
:100020000C9446030C9446030C9496080C948B078E
:100030000C9446030C9446030C9446030C9446031C
:100040000C9446030C9446030C9446030C9446030C
:100050000C9446030C9446030C9446030C944603FC
:100060000C9446030C9446030C9446030C944603EC
:100070000C9446030C9446030C9446030C944603DC
:100080000C9446030C9446030C9446030C944603CC
:100090000C9446030C9446030C9446030C944603BC
:1000A0000C9446030C9446030C9446030C944603AC
:1000B0000C9446030C9446030C9446030C9446039C
:1000C0000C9446030C9446030C9446030C9446038C
:1000D0000C9446030C9446030C9446030C9446037C
:1000E0000C94460382056F055B054805350522051E
:1000F0000F05FB04E704D304BF04AB049804850494
:1001000071045E044A04360423041004FD03E90369
:10011000D603C203AE039B038803750361034E033A
:100120003A03260313030003ED02D902C602B30209
:100130009F028B027802650251023D0229021502DC
:100140000202EF01DC01C801B501A1018D017A01B4
:1001500067015401706172616D6574657220373A90
:1001600020202025640000706172616D65746572E5
:1001700020363A20202025640000706172616D6590
:1001800074657220353A202020256400004665659C
:10019000646261636B282525293A202020256400AC
:1001A000004D6F642E2064657074282525293A203F
:1001B00020256400004D6F642E20667265712863EF
:1001C000487A293A256400004D6978282525293A7E
:1001D0002020202020202020256400004869676816
:1001E0002066726571286B487A293A256400004DB3
:1001F0006964206672657128487A293A202025644E
:1002000000004C6F77206672657128487A293A2081
:10021000202564000048696768206761696E2825A9
:1002200025293A2020256400004D69642067616912
:100230006E282525293A202020256400004C6F7760
:10024000206761696E282525293A20202025640031
:10025000004D6978282525293A20202020202020BB
:100260002025640000706172616D657465722037CD
:100270003A20202025640000706172616D6574650C
:100280007220363A202020256400004761696E28DC
:100290002525293A20202020202020256400004602
:1002A0006565646261636B282525293A2020202535
:1002B00064000050697463682063656E742E3A2090
:1002C0002020256400005069746368207374657091
:1002D0003A20202020256400004D69782825252912
:1002E0003A20202020202020202564000070617208
:1002F000616D6574657220373A2020202564000006
:10030000706172616D6574657220363A2020202517
:100310006400004F6666736574286D73293A202067
:10032000202025640000466565646261636B2825B2
:1003300025293A202020256400004D6F642E20647A
:10034000657074282525293A2020256400004D6F0A
:10035000642E20667265712863487A293A25640004
:10036000004D6978282525293A20202020202020AA
:100370002025640000706172616D657465722037BC
:100380003A20202025640000706172616D657465FB
:100390007220363A20202025640000706172616D61
:1003A0006574657220353A2020202564000046657A
:1003B00065646261636B282525293A202020256425
:1003C00000004D6F642E2064657074282525293A3D
:1003D0002020256400004D6F642E20667265712810
:1003E00063487A293A256400004D69782825252933
:1003F0003A202020202020202025640000706172F7
:10040000616D6574657220373A20202025640000F4
:10041000706172616D6574657220363A2020202506
:10042000640000706172616D6574657220353A20F8
:10043000202025640000466565646261636B2825A1
:1004400025293A202020256400004D6F642E206469
:10045000657074282525293A2020256400004D6FF9
:10046000642E20667265712863487A293A256400F3
:10047000004D6978282525293A2020202020202099
:100480002025640000706172616D657465722037AB
:100490003A202020256400005479706528302D33DF
:1004A000293A2020202020256400004665656462EA
:1004B00061636B282525293A202020256400004C03
:1004C0006576656C2032282525293A2020202025B4
:1004D0006400004C6576656C2031282525293A207A
:1004E000202020256400004761696E282525293ACF
:1004F00020202020202020256400004D6978282518
:1005000025293A202020202020202025640000706A
:100510006172616D6574657220373A202020256410
:100520000000706172616D6574657220363A20203A
:100530002025640000706172616D657465722035FC
:100540003A20202025640000706172616D65746539
:100550007220343A202020256400004665656462DC
:1005600061636B282525293A20202025640000544A
:10057000696D65286D73293A20202020202025648C
:1005800000004D6978282525293A202020202020A8
:100590002020256400002B0618060506F205DF055D
:1005A000CC05B905A6055472656D6F6C6F3A2020B5
:1005B000202020202025730000457175616C697A28
:1005C00065723A2020202020257300005069746352
:1005D000682073686966743A202020257300004300
:1005E000686F7275733A2020202020202020257308
:1005F0000000466C616E6765723A20202020202042
:1006000020257300005669627261746F3A202020C1
:100610002020202025730000446973746F72746970
:100620006F6E3A202020202573000044656C6179AC
:100630003A202020202020202020257300000C9428
:10064000090A0C9427070C942A0A11241FBECFEF25
:10065000D1E2DEBFCDBF00E00CBF16E0A0E0B2E00B
:10066000ECEEFEE100E00BBF02C007900D92AE324F
:10067000B107D9F727E0AEE2B6E001C01D92AF3076
:10068000B207E1F70E9495090C94740F0C940000D6
:100690009F92AF92BF92CF92DF92EF92FF920F9311
:1006A0001F93CF93DF93CDB7DEB766970FB6F8945D
:1006B000DEBF0FBECDBFB82E6B01A82EAA0CAA0CB0
:1006C000AA0CA81AAA94FB0110811A0D91809A0C09
:1006D0008281A80E80E00E9403078B2D90E0FC0130
:1006E000EE0FFF1FEA56FA4F85919491682F792FEC
:1006F000CE0101960E94790C60E08B2D0E944B0781
:10070000892BB9F08FE192E09F938F93CE010196F0
:100710009F938F93EBE0F7E081818F9380818F939C
:100720000E94800C0F900F900F900F900F900F90E1
:1007300016C082E292E09F938F93CE0101969F9321
:100740008F93EBE0F7E081818F9380818F930E94FC
:10075000800C0F900F900F900F900F900F9081E0F2
:100760000E940307E12FF0E0EE0FFF1FEC51FF4F57
:1007700085919491682F792F8E010F5F1F4FC801CB
:100780000E94790CF60160818B2D0E944B079F938C
:100790008F931F930F930F2EFBE0EF2EF7E0FF2EAA
:1007A000F02DF70181818F9380818F930E94800CBF
:1007B00082E00E940307E92DF0E0EE0FFF1FEC51ED
:1007C000FF4F85919491682F792FC8010E94790C71
:1007D000F60161818B2D0E944B079F938F931F938E
:1007E0000F93F70181818F9380818F930E94800CFA
:1007F00083E00E940307EA2DF0E0EE0FFF1FEC51AB
:10080000FF4F85919491682F792FC8010E94790C30
:10081000F60162818B2D0E944B079F938F931F934C
:100820000F93F70181818F9380818F930E94800CB9
:100830000FB6F894DEBF0FBECDBF66960FB6F89424
:10084000DEBF0FBECDBFDF91CF911F910F91FF9003
:10085000EF90DF90CF90BF90AF909F9008952F9230
:100860003F924F925F926F927F928F929F92AF9240
:10087000BF92CF92DF92EF92FF920F931F93CF938D
:10088000DF9310920701E4E0F1E08081807E8083B5
:100890008FEF80930801E5E0F1E080818F61808334
:1008A000808180628083A6E0B1E08C91E3E0F1E09A
:1008B000908180932E062C913081932F9F7180E040
:1008C000822B9F938F9386E292E09F938F93EDE02C
:1008D000F7E081818F9380818F930E94800C0F2E8F
:1008E000F0E3CF2EF6E0DF2EF02D0F900F900F905B
:1008F0000F900F900F9088248394912CC0E0D0E04B
:100900000F2EF6E06F2E77247394F02D0F2EF3E068
:100910004F2E55245394F02D0F2EF3E0AF2EB12C13
:10092000F02D0F2EFCE42F2EF2E03F2EF02D0F2E97
:10093000FDE0EF2EF7E0FF2EF02DF3012081F20114
:100940003081C5010C2E02C0880F991F0A94E2F76E
:10095000132F1F7100E0B801622B9B0182239323A8
:100960000C2E02C0959587950A94E2F7F6018193C3
:100970006F0199279F938F939F928F923F922F920F
:10098000F70181818F9380818F930E94800C229642
:10099000FFEF8F1A9F0A6DB77EB7685F7F4F0FB664
:1009A000F8947EBF0FBE6DBFCC30D10531F68FEF0E
:1009B00080936D008FE180936C0086E080936800E7
:1009C000DF91CF911F910F91FF90EF90DF90CF902B
:1009D000BF90AF909F908F907F906F905F904F905F
:1009E0003F902F90089581E28A95F1F700000895D5
:1009F00090E09C0121503109220F331F43E050E069
:100A0000022E02C0440F551F0A94E2F76423752397
:100A100002C0769567952A95E2F7FC01E15DF94FF2
:100A200020812130D9F030F0223059F1233009F003
:100A30004FC03AC06130710539F4FC01E15DF94FF6
:100A400021E0208381E008956230710539F4FC01D2
:100A5000E15DF94F22E0208382E008956115710580
:100A600031F4FC01E15DF94F108280E008956330BC
:100A70007105D1F4FC01E15DF94F23E0208380E0B2
:100A800008956115710531F4FC01E15DF94F1082A3
:100A900080E008956330710539F4FC01E15DF94FA0
:100AA00023E0208380E008956230710539F4FC0171
:100AB000E15DF94F22E0208381E008956130710506
:100AC00049F4FC01E15DF94F21E0208382E00895C3
:100AD00080E0089580E00895FF920F931F93CF93D5
:100AE000DF93F82E8091060190910301192F1F7159
:100AF00000E0082BC62FD0E021962F2D30E02C17D8
:100B00003D07A4F4B8018F2D0E94F804813019F438
:100B10008F2D91E00DC0823019F48F2D92E008C026
:100B2000F3942F2D30E02C173D0764F380E090E024
:100B3000DF91CF911F910F91FF9008959FEF97B98B
:100B40005E98662311F05D9A01C05D9888B95F9A3E
:100B50005F9808955E9A17B8882311F05D9A01C0D6
:100B60005D985F9A000017B886B15F985E98089507
:100B700080E00E94AA058823DCF30895559A569ACE
:100B8000579A8FEF87B95D985E985F9818B885EA95
:100B90009EE00197F1F700C000005F9A88E388B9F2
:100BA00000005F9881EE94E00197F1F700C000002B
:100BB0005F9A00005F9891E29A95F1F700005F9AC2
:100BC00000005F9881E28A95F1F700005F9A81E06A
:100BD00088B900005F988FE99FE00197F1F700C0A6
:100BE00000005F9A86E088B900005F989DE09A95C2
:100BF000F1F700005F9A8CE088B900005F988DE003
:100C00008A95F1F700000895EBE0F1E080818E7F96
:100C1000808389EF90E00197F1F700C000008081A8
:100C2000816080830895CF92DF92EF92FF920F93BD
:100C30001F93CF93DF936B017C01142F022FCBE026
:100C4000D1E088818F7B88838881886088838881D0
:100C50008F7D888380E881BB12B80E94040688815A
:100C600080628883005F01BB110F110F12B90E94CF
:100C7000040688818064888388818860888388816D
:100C80008F7D88838F2D9927AA27BB2781BBE2B848
:100C90000E940406888180628883D1BAC2B80E940B
:100CA0000406E2E0F1E080818D7F808380818260B4
:100CB0008083DF91CF911F910F91FF90EF90DF9094
:100CC000CF9008958F929F92AF92BF92CF92DF9272
:100CD000EF92FF92CF93DF938FEF81B980BBEAE071
:100CE000F1E0808181608083509A8081846080837C
:100CF0008081886080838081806180838081806240
:100D00008083808180648083808180688083E1E04B
:100D1000F1E0808182608083589ACBE0D1E08881C5
:100D20008F7E888388818460888388818F77888399
:100D300088818F77888388818F7B88838881877F6C
:100D4000888388818F7D888311BA12B80E94040637
:100D500088818062888311BA12B80E940406888153
:100D60008F7B888388818860888388818F7D888352
:100D700011BA12B80E94040688818062888311BA71
:100D800012B80E94040688818F7B888388818860DE
:100D9000888388818F7D888380E881BB12B80E9418
:100DA000040688818062888380E181BB12B80E943A
:100DB0000406C0E0D0E0812C912C540116C09E01A5
:100DC000B701A60180E090E00E9413068FEFC81AD9
:100DD000D80AE80AF80A89E0C816D104E104F10447
:100DE00071F72196C031D10519F075016401E7CF83
:100DF000DF91CF91FF90EF90DF90CF90BF90AF90B9
:100E00009F908F900895811107C00E94B80560E0FF
:100E100080E80E949E050895813039F40E94B8054B
:100E200060E080EC0E949E050895823039F40E94B3
:100E3000B80560E084E90E949E050895833031F48E
:100E40000E94B80560E084ED0E949E050895CF934E
:100E5000C82F8A3079F4809135068F5F843018F47A
:100E60008093350602C010923506809135060E94A7
:100E7000030706C00E94B80561E08C2F0E949E0502
:100E800080E090E0CF9108950E94B80560E081E095
:100E90000E949E05089528E0829FC0011124FC0154
:100EA000E60FF11DEE0FFF1FEA5CF94F8081918183
:100EB00008950F931F93CF93DF93082F162FC62FFC
:100EC000D0E088E0089FC00DD11D1124FE01EE0F77
:100ED000FF1FEA5CF94F51834083BA01882777FDF1
:100EE0008095982F0E94620BCC0FDD1FCC0FDD1F69
:100EF000C459DD4F288139814A815B810E94C60B2C
:100F00000E942F0B202F412F0E941306DF91CF91BB
:100F10001F910F9108951F920F920FB60F921124F7
:100F20000BB60F92CF92DF92EF92FF920F931F9327
:100F30002F933F934F935F936F937F938F939F93E1
:100F4000AF93BF93EF93FF930E94F30464E081E0BB
:100F50000E946C05192F823049F120F4813009F08C
:100F6000A0C006C0833071F1843009F09AC03BC044
:100F700081E080931C0282E080931D0283E08093D5
:100F80001E02913031F48091B6068F5F8093B606D1
:100F900007C0923029F48091B60681508093B6063E
:100FA0008091B60687708093B6067BC080911C0244
:100FB000913009F47DC0923009F077C0825080935F
:100FC0001C0276C060E08091B6060E944B0741E0AB
:100FD00050E0892B11F040E050E060E08091B606CF
:100FE0000E9459075EC060911C028091B6060E9463
:100FF0004B07113039F54091B60620911C0230E0C4
:1010000058E0459F200D311D1124F901EA51FC4F94
:101010004081840F911DF901EE0FFF1FEE0FFF1F9E
:10102000EA5DFB4F00811181228133816C01EE2446
:10103000D7FCE094FE2CC016D106E206F30654F16C
:10104000C80128C0123031F54091B60620911C022B
:1010500030E058E0459F200D311D1124F901EA517F
:10106000FC4F4081841B9109F901EE0FFF1FEE0F29
:10107000FF1FEA5DFA4F0081118122813381AC01AB
:10108000662757FD6095762F041715072607370743
:101090000CF0C801AC0160911C028091B6060E9460
:1010A000590784E08BBB789428C0815080931C0240
:1010B000E091B606F0E0E252FC4F008110E0ECE176
:1010C000F2E0808190E0602F712F0E94510C9C0112
:1010D0000196602F712F0E94510CF82EC9010296C3
:1010E000602F712F0E94510C2F5F2083F394F09298
:1010F0001D028F5F80931E02D4CFFF91EF91BF91AD
:10110000AF919F918F917F916F915F914F913F919F
:101110002F911F910F91FF90EF90DF90CF900F9044
:101120000BBE0F900FBE0F901F9018951F920F923D
:101130000FB60F9211240BB60F92CF92DF92EF925F
:10114000FF920F931F932F933F934F935F936F9350
:101150007F938F939F93AF93BF93EF93FF930E94DF
:10116000F30466E085E00E946C05192F853021F0BC
:10117000863009F0BEC05FC060911D028091B60646
:101180000E944B07113039F54091B60620911D029F
:1011900030E058E0459F200D311D1124F901EA513E
:1011A000FC4F4081840F911DF901EE0FFF1FEE0FE0
:1011B000FF1FEA5DFB4F00811181228133816C01A9
:1011C000EE24D7FCE094FE2CC016D106E206F3060E
:1011D00054F1C80128C0123031F54091B606209173
:1011E0001D0230E058E0459F200D311D1124F9010A
:1011F000EA51FC4F4081841B9109F901EE0FFF1F5A
:10120000EE0FFF1FEA5DFA4F0081118122813381C9
:10121000AC01662757FD6095762F04171507260742
:1012200037070CF0C801AC0160911D028091B60631
:101230000E9459075EC060911E028091B6060E940E
:101240004B07113039F54091B60620911E0230E06F
:1012500058E0459F200D311D1124F901EA51FC4F42
:101260004081840F911DF901EE0FFF1FEE0FFF1F4C
:10127000EA5DFB4F00811181228133816C01EE24F4
:10128000D7FCE094FE2CC016D106E206F30654F11A
:10129000C80128C0123031F54091B60620911E02D7
:1012A00030E058E0459F200D311D1124F901EA512D
:1012B000FC4F4081841B9109F901EE0FFF1FEE0FD7
:1012C000FF1FEA5DFA4F0081118122813381AC0159
:1012D000662757FD6095762F0417150726073707F1
:1012E0000CF0C801AC0160911E028091B6060E940C
:1012F000590782E08BBB7894FF91EF91BF91AF913A
:101300009F918F917F916F915F914F913F912F911D
:101310001F910F91FF90EF90DF90CF900F900BBE39
:101320000F900FBE0F901F9018958EE092E0909353
:101330000A0780930907CDE0D7E09983888380E08E
:1013400092E090930C0780930B07E2E0F1E080813C
:10135000826080830E94FF09288139814EE150E03C
:1013600061E070E08CE693E00E94BC0C0E94BE0538
:101370002881398145E150E061E070E08BE893E03D
:101380000E94BC0C0E942F042881398147E150E063
:1013900061E070E081EA93E00E94BC0C0E9462066A
:1013A0002881398140E150E061E070E089EB93E011
:1013B0000E94BC0C6CE172E080E00E9448037894CB
:1013C0002881398143E150E061E070E08AEC93E0EC
:1013D0000E94BC0C0E9444076CE172E08091B6064A
:1013E0000E9448038FE493EC0197F1F700C00000DE
:1013F000688179818EE290E00E94900CEBCF82E0D0
:101400008093C0008CE08093C40088E18093C10089
:101410000895CF93C82F873069F420910D0730913C
:101420000E0747E050E061E070E086E296E00E943F
:10143000BC0C0CC08A3019F48DE00E94090AE0EC63
:10144000F0E0908195FFFDCFC093C60080E090E072
:10145000CF9108956F927F928F929F92AF92BF9299
:10146000CF92DF92EF92FF920F931F93CF93DF9370
:101470007C018091B7069091B806892B09F0C3C012
:1014800009EB16E0C0ECD0E00F2EF6ECCF2ED12CFD
:10149000F02D38010F2EF8EBAF2EF6E0BF2EF02D19
:1014A00088818823ECF7888184FDC0C0888183FD12
:1014B000C0C0F60180818D3011F08A3069F48AE075
:1014C000F8018083B7010E94090A89EB96E09093A6
:1014D000B8068093B70697C0893039F0982F90529C
:1014E0009F3520F0803A90F001C080E2F7E00830AC
:1014F0001F0729F4B70187E00E94090AD1CFF8013C
:1015000081938F01B7010E94090ACACF8231B9F1D4
:1015100030F4833009F490C0883011F61BC0873155
:1015200031F08F37B9F0853109F0BACF0DC0F6E050
:10153000093B1F0709F008F4B3CFF8013197808108
:10154000803209F047C0ACCF86E0093B180709F0AC
:1015500058F5A6CF96E0093B190709F008F4A0CF8B
:10156000B70188E00E94090AB70180E20E94090AD7
:10157000B70188E00E94090A0150110991CFB70113
:101580008DE00E94090AE6E0093B1E0709F008F415
:1015900087CF4301B701F40181914F010E94090AED
:1015A00080169106B9F77CCFB70188E00E94090A3E
:1015B000B70180E20E94090AB70188E00E94090A87
:1015C00001501109F6E0093B1F0771F785010F5F14
:1015D0001F4F66CFB70188E00E94090AB70180E279
:1015E0000E94090AB70188E00E94090A0150110906
:1015F00086E0093B180709F453CFF8013197808141
:10160000803241F74DCFE091B706F091B8062081C6
:101610002A3031F03196F093B806E093B70604C053
:101620001092B8061092B70630E008C02EEF3FEFD8
:1016300005C02FEF3FEF02C02FEF3FEF822F932F18
:10164000DF91CF911F910F91FF90EF90DF90CF909E
:10165000BF90AF909F908F907F906F90089504D02F
:101660006894B1118DC0089570D088F09F5790F0A4
:10167000B92F9927B751A0F0D1F0660F771F881FB7
:10168000991F1AF0BA95C9F712C0B13081F077D01E
:10169000B1E0089574C0672F782F8827B85F39F0BC
:1016A000B93FCCF3869577956795B395D9F73EF416
:1016B00090958095709561957F4F8F4F9F4F0895BE
:1016C000E89409C097FB3EF49095809570956195DC
:1016D0007F4F8F4F9F4F9923A9F0F92F96E9BB2792
:1016E0009395F695879577956795B795F111F8CF0E
:1016F000FAF4BB0F11F460FF1BC06F5F7F4F8F4F79
:101700009F4F16C0882311F096E911C0772321F06E
:101710009EE8872F762F05C0662371F096E8862F06
:1017200070E060E02AF09A95660F771F881FDAF75D
:10173000880F9695879597F9089557FD9058440F0F
:10174000551F59F05F3F71F04795880F97FB991F20
:1017500061F09F3F79F087950895121613061406DD
:10176000551FF2CF4695F1DF08C01616170618066A
:10177000991FF1CF86957105610508940895E89445
:10178000BB2766277727CB0197F908950BD078C040
:1017900069D028F06ED018F0952309F05AC05FC0C8
:1017A0001124EECFCADFA0F3959FD1F3950F50E03F
:1017B000551F629FF001729FBB27F00DB11D639F03
:1017C000AA27F00DB11DAA1F649F6627B00DA11DA9
:1017D000661F829F2227B00DA11D621F739FB00D4F
:1017E000A11D621F839FA00D611D221F749F3327BF
:1017F000A00D611D231F849F600D211D822F762F58
:101800006A2F11249F5750408AF0E1F088234AF054
:10181000EE0FFF1FBB1F661F771F881F91505040A0
:10182000A9F79E3F510570F014C0AACF5F3FECF3BB
:10183000983EDCF3869577956795B795F795E7958C
:101840009F5FC1F7FE2B880F911D9695879597F99D
:10185000089597F99F6780E870E060E008959FEF32
:1018600080EC089500240A94161617061806090637
:10187000089500240A941216130614060506089506
:10188000092E0394000C11F4882352F0BB0F40F48E
:10189000BF2B11F460FF04C06F5F7F4F8F4F9F4FCE
:1018A000089597FB072E16F4009407D077FD09D012
:1018B0000E94650C07FC05D03EF4909581959F4FE2
:1018C0000895709561957F4F0895AA1BBB1B51E148
:1018D00007C0AA1FBB1FA617B70710F0A61BB70BA0
:1018E000881F991F5A95A9F780959095BC01CD0145
:1018F0000895FB01DC0105900D920020E1F70895A9
:10190000CF93DF93CDB7DEB7CE010A96AC016885E1
:1019100079858E819F810E94FB0CDF91CF91089584
:101920000F931F93CF93DF938C01EB018B8181FD8C
:1019300003C00FEF1FEF1AC082FF0DC02E813F8141
:101940008C819D812817390764F4E881F98101931E
:10195000F983E88306C0E885F985802F1995892BDE
:1019600041F78E819F8101969F838E83C801DF910D
:10197000CF911F910F9108958F929F92AF92BF9236
:10198000CF92DF92EF92FF920F931F93CF93DF934B
:101990006B014A017901D90113962C9121FF1BC0DB
:1019A0008C01C0E0D0E010C0D7011896ED91FC91F9
:1019B0001997B701D8018D918D011995892B69F47B
:1019C0000A151B0589F72196C815D90531F058016C
:1019D000AC0CBD1CF5CFC0E0D0E0CE01DF91CF91C3
:1019E0001F910F91FF90EF90DF90CF90BF90AF903D
:1019F0009F908F9008952F923F924F925F926F9297
:101A00007F928F929F92AF92BF92CF92DF92EF928E
:101A1000FF920F931F93CF93DF93CDB7DEB72C9731
:101A20000FB6F894DEBF0FBECDBF7C016B018A01FB
:101A3000FC0117821682838181FFC6C188248394AA
:101A4000912C8C0E9D1EF7019381F60193FD8591DB
:101A500093FF81916F01882309F4B2C1853239F473
:101A600093FD859193FF81916F01853229F4B70130
:101A700090E00E94900CE7CF512C312C20E02032D6
:101A8000A8F48B3261F028F4803251F0833271F483
:101A90000BC08D3239F0803349F4216028C02260B8
:101AA000246025C0286023C0206121C027FD27C0F5
:101AB000382F30533A3078F426FF06C0FAE05F9EA4
:101AC000300D1124532E13C08AE0389E300D11249E
:101AD000332E20620CC08E3221F426FD71C12064A9
:101AE00006C08C3611F4206802C0883641F4F60135
:101AF00093FD859193FF81916F018111C0CF982F44
:101B00009554933018F09052933028F40C5F1F4F87
:101B1000FFE3F9830DC0833631F0833771F08335ED
:101B200009F05EC023C0F801808189830E5F1F4FDA
:101B300044244394512C540115C03801F2E06F0E37
:101B4000711CF801A080B18026FF03C0652D70E0F4
:101B500002C06FEF7FEFC5012C870E940B0F2C0195
:101B600083012C856FE7262E222218C03801F2E06F
:101B70006F0E711CF801A080B18026FF03C0652D97
:101B800070E002C06FEF7FEFC5012C870E94000F4D
:101B90002C012C8550E8252E222A830123FC1CC011
:101BA00006C0B70180E290E00E94900C3A94832D29
:101BB00090E048165906A8F30FC0F50127FC85915F
:101BC00027FE81915F01B70190E00E94900C3110D7
:101BD0003A94F1E04F1A51084114510471F7EDC0E5
:101BE000843611F0893641F5F80127FF07C060817E
:101BF0007181828193810C5F1F4F08C06081718168
:101C0000882777FD8095982F0E5F1F4F4FE6B42EE3
:101C1000B22297FF09C090958095709561957F4F8E
:101C20008F4F9F4FF0E8BF2A2AE030E0A4010E94C6
:101C3000160FA82EA81843C0853731F43FEEB32EF7
:101C4000B2222AE030E024C099EFB92EB2228F36BA
:101C5000B9F020F4883509F0B3C00DC0803721F009
:101C6000883709F0ADC002C020E1B22AB4FE0BC033
:101C700084E0B82A08C024FF09C0E6E0BE2A06C0F6
:101C800028E030E005C020E130E002C020E132E091
:101C9000F801B7FE07C060817181828193810C5F7A
:101CA0001F4F06C06081718180E090E00E5F1F4F82
:101CB000A4010E94160FA82EA818FFE7BF22B6FEA7
:101CC0000BC02B2D2E7FA51450F4B4FE0AC0B2FC1D
:101CD00008C02B2D2E7E05C07A2C2B2D03C07A2C0C
:101CE00001C0752C24FF0DC0FE01EA0DF11D80819D
:101CF000803311F4297E09C022FF06C073947394C7
:101D000004C0822F867809F0739423FD14C020FF4D
:101D10000FC05A2C731460F4530C5718732C08C05E
:101D2000B70180E290E02C870E94900C73942C8580
:101D30007314B0F304C0731410F4371801C0312CBD
:101D400024FF12C0B70180E390E02C870E94900C22
:101D50002C8522FF1EC021FF03C088E590E002C051
:101D600088E790E0B7010CC0822F867891F021FDC2
:101D700002C080E201C08BE227FD8DE2B70190E056
:101D80000E94900C06C0B70180E390E00E94900C86
:101D90005A94A514C0F3AA94F401EA0DF11DB701F9
:101DA000808190E00E94900CA110F5CF06C0B70191
:101DB00080E290E00E94900C3A943110F8CF43CE2C
:101DC000F7012681378102C02FEF3FEFC9012C9622
:101DD0000FB6F894DEBF0FBECDBFDF91CF911F913C
:101DE0000F91FF90EF90DF90CF90BF90AF909F90BA
:101DF0008F907F906F905F904F903F902F900895BD
:101E0000FC010590615070400110D8F780959095C5
:101E10008E0F9F1F0895FC016150704001900110CA
:101E2000D8F7809590958E0F9F1F0895FA01AA27E5
:101E3000283051F1203181F1E8946F936E7F6E5F0D
:101E40007F4F8F4F9F4FAF4FB1E03ED0B4E03CD0BB
:101E5000670F781F891F9A1FA11D680F791F8A1F9E
:101E6000911DA11D6A0F711D811D911DA11D20D005
:101E700009F468943F912AE0269F11243019305DBF
:101E80003193DEF6CF010895462F4770405D4193B0
:101E9000B3E00FD0C9F7F6CF462F4F70405D4A33FD
:101EA00018F0495D31FD4052419302D0A9F7EACFC5
:101EB000B4E0A6959795879577956795BA95C9F7F4
:101EC00000976105710508959B01AC010A2E0694E7
:101ED0005795479537952795BA95C9F7620F731FA0
:0C1EE000841F951FA01D0895F894FFCFEB
:101EEC0000000002000000002707000000000000B6
:101EFC00000300000000090A2A0A00000102036F17
:101F0C006E006F666600496E697469616C74207648
:101F1C0061726465206672616E2070756C7367699E
:101F2C00766172653A20307825780A00496E6974BA
:101F3C0069616C742070756C736769766172766117
:101F4C007264652025643A2025640A000000803FF5
:101F5C000AD7A3430000803F0AD7A3430000000028
:101F6C000000000000000000000000000000803FA6
:101F7C000AD7A3430AD7A3430AD7A3430AD7A34339
:101F8C000AD7A3430000803F000000000000803F00
:101F9C000AD7A3430AD7A3430AD7A3430AD7A34319
:101FAC000000000000000000000000000000803F66
:101FBC000AD7A3430AD7A3430AD7A3430AD7A343F9
:101FCC000000000000000000000000000000803F46
:101FDC000AD7A3430AD7A3430AD7A3430AD7A343D9
:101FEC000AD7A34300000000000000000000803F5F
:101FFC000AD7A3430000803F0AD7A3430AD7A343C1
:10200C000AD7A34300000000000000000000803F3E
:10201C000AD7A3430AD7A3430AD7A3430AD7A34398
:10202C000000803F0000803F00007A440000803FA9
:10203C000AD7A3430AD7A3430AD7A3430AD7A34378
:10204C000000000000000000000000005541525448
:10205C002D6B6F6D6D756E696B6174696F6E206938
:10206C006E697469657261642E0A004C43442D6D6F
:10207C006F64756C20696E697469657261642E0A8F
:10208C000050756C7367697661726520696E69744E
:10209C006965726164652E0A0048504920696E6951
:1020AC00746965726164652E0A00417662726F74A0
:1020BC007420616B746976657261742E0A00030674
:1020CC0004040505070400071405000000000005C2
:1020DC0014050505010000050501050000000005BB
:1020EC0005010500000000050501050500000005BF
:1020FC0001010505000000050505050A6401000540
:10210C000505050000000000000064000000E80365
:10211C00000064000000000000000000000000004F
:10212C000000000000000000000064000000E80354
:10213C000000640000006400000064000000030064
:10214C000000000000000000000064000000F4012A
:10215C0000006400000064000000000000000000AB
:10216C000000000000000000000064000000F4010A
:10217C00000064000000640000000000000000008B
:10218C000000000000000000000064000000F401EA
:10219C000000640000006400000064000000000007
:1021AC0000000000000000000000640000001800A7
:1021BC000000640000006400000064000000640083
:1021CC000000000000000000000064000000C800D7
:1021DC000000C8000000C800000020030000401FE1
:1021EC000000300000000000000064000000F4015A
:1021FC00000064000000640000000000000000000B
:10220C0000000000000000000000000000000000C2
:10221C0000009CFFFFFF0000000000000000000019
:10222C0000000000000000000000000000000000A2
:10223C00000000000000000000009CFFFFFF0000F9
:10224C000000000000000000000000000000000082
:10225C000000000000009CFFFFFF000000000000D9
:10226C000000000000000000000000000000000062
:10227C000000000000009CFFFFFF000000000000B9
:10228C000000000000000000000000000000000042
:10229C000000000000009CFFFFFF00000000000099
:1022AC000000000000000000000000000000E8FF3B
:1022BC00FFFF9CFFFFFF9CFFFFFF000000000000E2
:1022CC000000000000000000000000000000000002
:1022DC0000000000000000000000000000000000F2
:1022EC0000000000000000000000000000000000E2
:1022FC000000000000009CFFFFFF00000000000039
:0E230C000000000000002A72696E672A0A00B5
:00000001FF
